:100000000C9444000C9461000C9461000C94610009
:100010000C9461000C9461000C9461000C946100DC
:100020000C9461000C9461000C94E1010C946B023F
:100030000C9461000C9461000C9461000C946100BC
:100040000C944A020C9461000C9461000C946100C1
:100050000C9461000C9461000C9461000C9461009C
:100060000C9461000C9461004079243019120278DC
:10007000001808034621060E407924301912027830
:10008000001808034621060E11241FBECFEFD8E04A
:10009000DEBFCDBF11E0A0E0B1E0E2E5F5E002C0D7
:1000A00005900D92AC31B107D9F711E0ACE1B1E0A8
:1000B00001C01D92AE31B107E1F70E947D020C94A0
:1000C000A7020C9400008CE284B981E78CBD0895EE
:1000D0008EBD0DB407FEFDCF8EB508958EBD0DB457
:1000E00007FEFDCF8EB5089580E091E00895E0EC25
:1000F000F0E095838483108288E9818386E082839F
:100100000895982F8091C00085FFFCCFE0ECF0E0CF
:10011000968308958091C00087FFFCCF8091C60030
:100120000895982F8091C00085FFFCCFE0ECF0E0AF
:10013000968380E090E0089508958EE091E0089520
:10014000482F662311F4289801C0289A8BB1942F68
:10015000907F8F70982B9BB925E0822F8A95F1F7BD
:10016000299A822F8A95F1F7299830EF832F8A9563
:10017000F1F78BB1942F9295907F8F70982B9BB94C
:10018000822F8A95F1F7299A2A95F1F729983A95BD
:10019000F1F7662331F4443020F480E49FE10197C5
:1001A000F1F70895209A219A8AB1806F8AB9289828
:1001B000299888EC90E020E931E0F9013197F1F7D6
:1001C0000197D9F78BB18F7080638BB995E0892F38
:1001D0008A95F1F7299A892F8A95F1F7299820EFC6
:1001E000822F8A95F1F7E0E2FEE43197F1F7892F4B
:1001F0008A95F1F7299A892F8A95F1F72998822F04
:100200008A95F1F7E0E2F3E03197F1F7892F8A95CB
:10021000F1F7299A892F8A95F1F72998822F8A95E3
:10022000F1F78BB18F7080628BB9892F8A95F1F7C6
:10023000299A9A95F1F729982A95F1F788E260E0D2
:100240000E94A00088E060E00E94A00081E060E0E1
:100250000E94A0008CE060E00E94A00080E860E0C6
:100260000E94A0000895CF93DF93EC0104C061E0E9
:100270000E94A000219688818823C9F7DF91CF9141
:100280000895CF93DF93EC0104C061E00E94A000C9
:100290002196FE0184918823C1F7DF91CF910895C3
:1002A00061E00E94A00081E090E008958FEF8AB99C
:1002B0008BB908950E948C018BB908958FEF8AB98C
:1002C0008BB983E084B985B908952898299AE82FD5
:1002D000EF70F0E0E859FF4FE491EBB928EC30E023
:1002E00040E951E0FA013197F1F721503040D1F760
:1002F0002998289A82958F70E82FF0E0E859FF4FEF
:10030000E491EBB988EC90E020E931E0F901319714
:10031000F1F70197D9F70895E8E7F0E0E80FF11D4C
:10032000E4918E2F089584B1876084B935B12898FF
:1003300085B1299825B12A9895B1832B822B892BD9
:1003400085B908950E948C0128E0482F50E0E3E22F
:10035000F0E035E32150CA01022E02C09595879541
:100360000A94E2F780FF03C085B1816002C085B1C5
:100370008E7F828385B1A3E2B0E085B18260828303
:10038000832F8A95F1F785B18D7F8283222311F720
:1003900085B1846012968C93129785E38A95F1F764
:1003A00085B18B7F12968C9308951F93182F8F70B1
:1003B0000E94A201812F82958F700E94A2011F913D
:1003C00008951F920F920FB60F9211242F935F93EF
:1003D0006F937F938F939F93AF93BF93809181008F
:1003E00090E48927809381008091810086FD07C079
:1003F000809186009091870080931D010EC08091AE
:1004000086009091870020911D01821B91096AE36B
:1004100070E00E94930260931C01BF91AF919F9185
:100420008F917F916F915F912F910F900FBE0F90E1
:100430001F90189582E48093810080E280936F0082
:1004400084B18E6F84B985B18D6F85B90895299A6D
:1004500085E3982F9A95F1F729988A95F1F788E521
:1004600092E020E931E0F9013197F1F70197D9F7EE
:1004700080E0089514BC85E085BDEEE6F0E091E0F3
:10048000908314BC85BD908314BC85BD8081816040
:10049000808308951F920F920FB60F9211248F93AD
:1004A0009F9385B191E0892785B99F918F910F9096
:1004B0000FBE0F901F901895E0E8F0E010828AE0E0
:1004C000818387E591E291878087EEE6F0E0818184
:1004D0008260818308951F920F920FB60F921124AC
:1004E0008F939F9385B192E0892785B99F918F91D2
:1004F0000F900FBE0F901F9018958FEF84B90E9438
:100500003A02E0E8F0E0109280008AE0818387E51B
:1005100091E29187808780916F008260EEE6F0E043
:1005200081837894FFCFAA1BBB1B51E107C0AA1F90
:10053000BB1FA617B70710F0A61BB70B881F991F84
:100540005A95A9F780959095BC01CD010895F8942E
:02055000FFCFDB
:100552000000000200000000910000000000000006
:0C0562000002000000005001000000003A
:00000001FF
