:100000000C943C000C9459000C9459000C94590029
:100010000C9459000C9459000C9459000C945900FC
:100020000C9459000C9459000C9459000C945900EC
:100030000C9459000C9459000C9459000C945900DC
:100040000C9459000C9459000C9459000C945900CC
:100050000C9459000C9459000C9459000C945900BC
:100060000C94CC000C94590031323346343536456B
:10007000373839444130424311241FBECFEFD8E016
:10008000DEBFCDBF11E0A0E0B1E0E0E2FDE002C0E4
:1000900005900D92A233B107D9F711E0A2E3B1E0C8
:1000A00001C01D92A933B107E1F70E94C1020C946F
:1000B0008E060C9400008CE284B981E78CBD089513
:1000C0008EBD0DB407FEFDCF8EB508958EBD0DB467
:1000D00007FEFDCF8EB5089584E88093B8008FEFBA
:1000E0008093BB0084E08093BC0008958091BC00A5
:1000F000817008958091BC0080FDFCCF8091150136
:100100000895FC018091BC0080FDFCCF6093380114
:1001100080818093340180FD0DC04E2FA5E3B1E0B6
:10012000CF01FC0102C080818D9331968E2F841BFC
:100130008617C8F31092320188EF8093150185EA83
:100140008093BC0008958091BC0080FDFCCF10928C
:10015000320188EF8093150185EA8093BC000895F1
:10016000AC018091BC0080FDFCCF8091320180FF0A
:100170000FC020E030E00AC0FA01E20FF31FD901FE
:10018000AC5CBE4F8C9180832F5F3F4F2617A0F34E
:1001900080913201817008951F920F920FB60F92D5
:1001A00011242F933F938F939F93EF93FF9380910D
:1001B000B9008832D1F0893240F48031A1F0883121
:1001C000A1F0883009F04DC00EC0803459F181345F
:1001D00020F4883309F045C042C08035B9F0883535
:1001E00009F03FC02DC010923301909133018091EE
:1001F0003801981768F5E92FF0E0EC5CFE4F80813C
:100200008093BB009F5F9093330118C080913301AE
:100210009091BB00E82FF0E0EC5CFE4F90838F5F85
:10022000809333012091330130E08091380190E0D8
:1002300001972817390714F485EC18C085E816C013
:100240008091BB00E0913301F0E0EC5CFE4F8083D5
:100250008091320181608093320184E907C085EA90
:1002600005C08091B9008093150184E08093BC00A3
:10027000FF91EF919F918F913F912F910F900FBE22
:100280000F901F90189586E191E00895E0ECF0E062
:1002900095838483108288E9818386E08283089530
:1002A000982F8091C00085FFFCCFE0ECF0E09683B2
:1002B00008958091C00087FFFCCF8091C60008950B
:1002C000982F8091C00085FFFCCFE0ECF0E0968392
:1002D00080E090E008958FE08AB98FEF8BB90895A0
:1002E000EF92FF920F931F93CF93DF937FEF40E046
:1002F00050E001E010E080E4E82E8CE9F82E2BB10C
:10030000C801042E02C0880F991F0A94E2F7A82F93
:10031000809582238BB9C7010197F1F789B1829546
:100320008F70FA01E859FF4F20E030E0C82FD0E08D
:10033000CE01022E02C0959587950A94E2F780FDC2
:1003400012C0B491C801022E02C0880F991F0A94EE
:10035000E2F7BC0189B182958F7090E086239723E4
:10036000892BC1F37B2F2F5F3F4F3496243031050B
:10037000F9F68BB1A82BABB94F5F5F4F44305105F5
:1003800009F0BDCF872FDF91CF911F910F91FF9083
:10039000EF90089584E291E00895482F662311F4C8
:1003A000449801C0449A88B1942F92959F70807FA1
:1003B000982B98B925E0822F8A95F1F7459A822FDC
:1003C0008A95F1F7459830EF832F8A95F1F788B138
:1003D000942F9F70807F982B98B9822F8A95F1F780
:1003E000459A2A95F1F745983A95F1F7662331F445
:1003F000443020F480E49FE10197F1F708953C9A9E
:100400003D9A87B18F6087B94498459888EC90E011
:1004100020E931E0F9013197F1F70197D9F788B177
:10042000807F836088B995E0892F8A95F1F7459A96
:10043000892F8A95F1F7459820EF822F8A95F1F759
:10044000E0E2FEE43197F1F7892F8A95F1F7459ABA
:10045000892F8A95F1F74598822F8A95F1F7E0E286
:10046000F3E03197F1F7892F8A95F1F7459A892FB3
:100470008A95F1F74598822F8A95F1F788B1807FA8
:10048000826088B9892F8A95F1F7459A9A95F1F794
:1004900045982A95F1F788E260E00E94CD0188E056
:1004A00060E00E94CD0181E060E00E94CD018CE01F
:1004B00060E00E94CD0180E860E00E94CD010895D7
:1004C000CF93DF93EC0104C061E00E94CD0121963F
:1004D00088818823C9F7DF91CF910895CF93DF9367
:1004E000EC0104C061E00E94CD012196FE018491DF
:1004F0008823C1F7DF91CF91089561E00E94CD017B
:1005000081E090E00895E0E8F0E08FE39CE99783D4
:10051000868382EA80838AE181830895229AE0E8D3
:10052000F0E08FE39CE99783868382EA80838AE107
:10053000818308958D96A0E0B0E0BC01CD012FE34A
:100540003CE940E050E00E941B0328E037E040E037
:1005500050E00E943A03C90108950E949A022CE9D2
:100560008034920720F4E0E8F0E0938782870895D2
:100570002CE98034920720F4E0E8F0E0938782874A
:1005800008958F929F92AF92BF92CF92DF92FF9287
:100590000F931F93DF93CF9300D00F92CDB7DEB7A9
:1005A0000E94CA016C010E94FF010E946B010E941F
:1005B0008E02789480E091E0B6010E94B10380EC55
:1005C00060E00E94CD0100E05E010894A11CB11C16
:1005D00082E1882E81E0982E0E9470018F3FE1F326
:1005E000F501E00FF11D80830F5F0330A8F3C50113
:1005F0000E947703182FF92E00D000D000D0EDB75D
:10060000FEB73196ADB7BEB71296DC92CE92119777
:1006100093828282848395830E949D038DB79EB7C7
:1006200006960FB6F8949EBF0FBE8DBF812F9F2DEB
:100630000E94AD02D1CF629FD001739FF001829FD3
:10064000E00DF11D649FE00DF11D929FF00D839F61
:10065000F00D749FF00D659FF00D9927729FB00DFE
:10066000E11DF91F639FB00DE11DF91FBD01CF0111
:100670001124089597FB092E05260ED057FD04D0AE
:1006800014D00AD0001C38F450954095309521952F
:100690003F4F4F4F5F4F0895F6F7909580957095B7
:1006A00061957F4F8F4F9F4F0895A1E21A2EAA1B8D
:1006B000BB1BFD010DC0AA1FBB1FEE1FFF1FA21712
:1006C000B307E407F50720F0A21BB30BE40BF50B0F
:1006D000661F771F881F991F1A9469F76095709598
:1006E000809590959B01AC01BD01CF010895FC015F
:1006F00088279927E89421912032E9F3293010F0D6
:100700002E30C8F32B3241F02D3239F4689404C0F6
:100710000E949503820F911D219120532A30C0F32E
:100720001EF4909581959F4F08957AE0979F902DA4
:10073000879F802D910D11240895A0E0B0E0E3EA99
:10074000F3E00C9467069E01275F3F4F8D819E81E9
:100750006F817885A9010E94DA032096E2E00C946B
:100760008306EF92FF920F931F93CF93DF937C0149
:100770008B01DB0113968C9181FD03C0CFEFDFEF7E
:1007800013C0C0E0D0E00BC0D8011896ED91FC91E9
:100790001997B8010995892B11F0CFEFDFEFF70119
:1007A00081917F01882381F7CE01CDB7DEB7E6E0E6
:1007B0000C947F06ABE0B0E0E0EEF3E00C9457065B
:1007C0003C012B015A01FC0117821682838181FDB5
:1007D00003C06FEF7FEFC6C19AE0892E1E01089417
:1007E000211C311CF3012381F20123FD859123FF9C
:1007F00081912F01882309F4B2C1853239F423FD98
:10080000859123FF81912F01853229F490E0B30176
:100810000E94CD05E7CF982FFF24EE249924FFE115
:10082000FF15D0F09B3269F09C3228F4903259F0D9
:10083000933291F40EC09D3249F0903369F441E057
:1008400024C052E0F52A84E0F82A28C098E0F92A6A
:1008500025C0E0E1FE2A22C0F7FC29C0892F805381
:100860008A3070F4F6FE05C0989C902C1124980EE6
:1008700015C0E89CE02C1124E80EF0E2FF2A0EC01F
:100880009E3229F4F6FC6BC140E4F42A07C09C3682
:1008900019F450E8F52A02C0983649F4F20123FD14
:1008A000959123FF91912F01992309F0B8CF892FBA
:1008B0008554833018F08052833038F444E050E09F
:1008C000A40EB51E5FE359830FC0933631F0933702
:1008D00079F0933509F056C020C0F50180818983F5
:1008E00042E050E0A40EB51E610101E010E012C02C
:1008F000F501C080D180F6FC03C06FEF7FEF02C02E
:10090000692D70E042E050E0A40EB51EC6010E94C1
:10091000C2058C015FE7F52214C0F501C080D180CB
:10092000F6FC03C06FEF7FEF02C0692D70E042E07C
:1009300050E0A40EB51EC6010E94B7058C0150E818
:10094000F52AF3FE07C01AC080E290E0B3010E94CE
:10095000CD05EA948E2D90E008171907A8F30EC074
:10096000F601F7FC8591F7FE81916F0190E0B301EC
:100970000E94CD05E110EA940150104001151105C7
:1009800079F7EAC0943611F0993669F5F7FE08C098
:10099000F501208131814281538184E090E00AC0D9
:1009A000F501808191819C01442737FD4095542FAA
:1009B00082E090E0A80EB91E9FE6F92257FF09C019
:1009C00050954095309521953F4F4F4F5F4FE0E850
:1009D000FE2ACA01B901A1012AE030E00E94F9050E
:1009E000D82ED21840C0953729F41F2D1F7E2AE03B
:1009F00030E01DC01F2D197F9F3661F0903720F425
:100A0000983509F0ACC00FC0903739F0983709F02D
:100A1000A6C004C028E030E00AC0106114FD1460D4
:100A200020E130E004C014FD166020E132E017FF41
:100A300008C0F501608171818281938144E050E0BA
:100A400008C0F50180819181BC0180E090E042E026
:100A500050E0A40EB51EA1010E94F905D82ED218AF
:100A60008FE7F82EF122F6FE0BC05EEFF522D914C7
:100A700038F4F4FE07C0F2FC05C08FEEF82202C085
:100A80001D2D01C0192DF4FE0DC0FE01ED0DF11D4F
:100A90008081803319F499EEF92208C01F5FF2FEBD
:100AA00005C003C08F2D867809F01F5F0F2DF3FC62
:100AB00014C0F0FE0FC01E1510F09D2C0BC09D2C15
:100AC0009E0C911A1E2D06C080E290E0B3010E9498
:100AD000CD051F5F1E15C0F304C01E1510F4E11AEA
:100AE00001C0EE2404FF0FC080E390E0B3010E9438
:100AF000CD0502FF1DC001FD03C088E790E00EC0D8
:100B000088E590E00BC0802F867891F001FF02C04D
:100B10008BE201C080E2F7FC8DE290E0B3010E941D
:100B2000CD0506C080E390E0B3010E94CD059A9404
:100B3000D914C0F3DA94F101ED0DF11D808190E03C
:100B4000B3010E94CD05DD20A9F706C080E290E048
:100B5000B3010E94CD05EA94EE20C1F743CEF30124
:100B600066817781CB012B96E2E10C947306FC0140
:100B70000590615070400110D8F7809590958E0FC8
:100B80009F1F0895FC016150704001900110D8F73B
:100B9000809590958E0F9F1F08950F931F93CF936D
:100BA000DF938C01EB018B8181FF1BC082FF0DC0A5
:100BB0002E813F818C819D812817390764F4E8815B
:100BC000F9810193F983E88306C0E885F985802FD0
:100BD0000995892B31F48E819F8101969F838E83A5
:100BE00002C00FEF1FEFC801DF91CF911F910F914E
:100BF0000895FA01AA27283051F1203181F1E894B3
:100C00006F936E7F6E5F7F4F8F4F9F4FAF4FB1E0FF
:100C10003ED0B4E03CD0670F781F891F9A1FA11DFA
:100C2000680F791F8A1F911DA11D6A0F711D811DFB
:100C3000911DA11D20D009F468943F912AE0269FC0
:100C400011243019305D3193DEF6CF010895462F1F
:100C50004770405D4193B3E00FD0C9F7F6CF462F00
:100C60004F70405D4A3318F0495D31FD4052419369
:100C700002D0A9F7EACFB4E0A69597958795779526
:100C80006795BA95C9F700976105710508959B01AD
:100C9000AC010A2E06945795479537952795BA9536
:100CA000C9F7620F731F841F951FA01D08952F920F
:100CB0003F924F925F926F927F928F929F92AF92EC
:100CC000BF92CF92DF92EF92FF920F931F93CF9339
:100CD000DF93CDB7DEB7CA1BDB0B0FB6F894DEBFD0
:100CE0000FBECDBF09942A88398848885F846E84F6
:100CF0007D848C849B84AA84B984C884DF80EE8040
:100D0000FD800C811B81AA81B981CE0FD11D0FB648
:100D1000F894DEBF0FBECDBFED010895F894FFCF6C
:100D2000444947495445204F20414E47554C4F3A7E
:100D30002000256400F800000002000000006001AF
:100D40000000000000000002000000007D02000022
:020D50000000A1
:00000001FF
