:100000000C943C000C9459000C9459000C94590029
:100010000C9459000C9459000C9459000C945900FC
:100020000C9459000C9459000C9459000C94B7018D
:100030000C9459000C9459000C9459000C945900DC
:100040000C945A010C9459000C9459000C945900CA
:100050000C9459000C9459000C9459000C945900BC
:100060000C94C1000C945900407924301912027884
:10007000001808034621060E11241FBECFEFD8E05A
:10008000DEBFCDBF11E0A0E0B1E0EEE1F4E002C0E0
:1000900005900D92A031B107D9F721E0A0E1B1E0C0
:1000A00001C01D92A032B207E1F70E9403020C9436
:1000B0000D020C9400008CE284B981E78CBD089598
:1000C0008EBD0DB407FEFDCF8EB508950C94600073
:1000D00084E88093B8008FEF8093BB0084E0809326
:1000E000BC0008958091BC00817008958091BC008F
:1000F00080FDFCCF8091000108952091BC0020FD7F
:10010000FCCF60931201FC0120812093130120FF9A
:1001100009C01092110188EF8093000185EA809355
:10012000BC000895FC013196A4E1B1E081E086179E
:1001300080F791919D938F5FFACF8091BC0080FDF5
:10014000FCCF1092110188EF8093000185EA809323
:10015000BC0008952091BC0020FDFCCF209111012E
:1001600020FD04C08091110181700895A3E1B1E0E8
:10017000282FFC018E2F821B8617A0F78D9181936B
:10018000F9CF1F920F920FB60F9211242F933F9326
:100190008F939F93EF93FF938091B900883201F181
:1001A00040F48031D9F08831D9F0883009F04AC064
:1001B00015C0803491F128F4883309F043C085EAF2
:1001C00046C08035F1F08835E9F58091BB00E091BB
:1001D0001001F0E0ED5EFE4F80832DC01092100103
:1001E000E091100180911201E81728F581E08E0F4F
:1001F00080931001F0E0ED5EFE4F80818093BB00A4
:1002000018C0E091100181E08E0F80931001809161
:10021000BB00F0E0ED5EFE4F80832091100130E0E6
:100220008091120190E001972817390714F485ECAA
:100230000EC085E80CC0809111018160809311018E
:1002400084E905C08091B9008093000184E0809327
:10025000BC00FF91EF919F918F913F912F910F9053
:100260000FBE0F901F90189581E091E00895E0EC8B
:10027000F0E095838483108288E9818386E082831D
:1002800008959091C00095FFFCCF8093C60008951B
:100290000E94410180E090E008958091C00087FFB6
:1002A000FCCF8091C6000895E82FF0E0E859FF4F99
:1002B000849108951F920F920FB60F9211242F93DD
:1002C0003F938F939F93EF93FF938FE085B9209196
:1002D0001701E22FF0E0E85EFE4F81818BB931E03B
:1002E000320F3093170181E090E001C0880F2A950A
:1002F000EAF7809585B9343011F410921701FF9117
:10030000EF919F918F913F912F910F900FBE0F9082
:100310001F90189514BC85E085BDEEE6F0E0808165
:100320008160808308950E948A018AB18FEF8AB923
:100330008FE084B908951F93CF93DF93182F8F70A8
:100340000E945401C8E1D1E08983812F82958F708A
:100350000E9454018A8380E00E9454018B8380E0D4
:100360000E9454018C83DF91CF911F9108951F92B9
:100370000F920FB60F9211248F93EF93FF93EDE13D
:10038000F1E082818F5F8283FF91EF918F910F90D7
:100390000FBE0F901F901895E0E8F0E010828DE0FE
:1003A000818389E09DE391878087EEE6F0E081819B
:1003B0008260818308950C94CC0180911F018C335D
:1003C00038F010921F0180911E018F5F80931E01F3
:1003D00080911E018C3338F010921E0180911D0116
:1003E0008F5F80931D0180911D01883110F0109264
:1003F0001D01089580911F01089580911E010895A7
:1004000080911D0108950E9493010E94DB01789460
:0E0410000E94FA010E949B01FBCFF894FFCFDF
:10041E00F80000000200000000480100000000008B
:00000001FF
