:100000000C943C000C9459000C9459000C94590029
:100010000C9459000C9459000C9459000C945900FC
:100020000C9459000C9459000C9459000C942E0215
:100030000C9459000C9459000C9459000C945900DC
:100040000C9472010C9459000C9459000C945900B2
:100050000C9459000C9459000C9459000C945900BC
:100060000C94CC000C945900407924301912027879
:10007000001808034621060E11241FBECFEFD8E05A
:10008000DEBFCDBF11E0A0E0B1E0E0EDF4E002C0E2
:1000900005900D92A031B107D9F711E0A0E1B1E0D0
:1000A00001C01D92A132B107E1F70E9460020C94D9
:1000B00066020C9400008CE284B981E78CBD08953F
:1000C0008EBD0DB407FEFDCF8EB508958EBD0DB467
:1000D00007FEFDCF8EB5089584E88093B8008FEFBA
:1000E0008093BB0084E08093BC0008958091BC00A5
:1000F000817008958091BC0080FDFCCF809100014B
:100100000895FC018091BC0080FDFCCF6093160136
:1001100080818093120180FD0DC04E2FA3E1B1E0DC
:10012000CF01FC0102C080818D9331968E2F841BFC
:100130008617C8F31092100188EF8093000185EABA
:100140008093BC0008958091BC0080FDFCCF10928C
:10015000100188EF8093000185EA8093BC00089528
:10016000AC018091BC0080FDFCCF8091100180FF2C
:100170000FC020E030E00AC0FA01E20FF31FD901FE
:10018000AE5EBE4F8C9180832F5F3F4F2617A0F34A
:1001900080911001817008951F920F920FB60F92F7
:1001A00011242F933F938F939F93EF93FF9380910D
:1001B000B9008832D1F0893240F48031A1F0883121
:1001C000A1F0883009F04DC00EC0803459F181345F
:1001D00020F4883309F045C042C08035B9F0883535
:1001E00009F03FC02DC01092110190911101809132
:1001F0001601981768F5E92FF0E0EE5EFE4F80815A
:100200008093BB009F5F9093110118C080911101F2
:100210009091BB00E82FF0E0EE5EFE4F90838F5F81
:10022000809311012091110130E08091160190E03E
:1002300001972817390714F485EC18C085E816C013
:100240008091BB00E0911101F0E0EE5EFE4F8083F3
:100250008091100181608093100184E907C085EAD4
:1002600005C08091B9008093000184E08093BC00B8
:10027000FF91EF919F918F913F912F910F900FBE22
:100280000F901F90189581E091E00895E0ECF0E068
:1002900095838483108288E9818386E08283089530
:1002A000982F8091C00085FFFCCFE0ECF0E09683B2
:1002B00008958091C00087FFFCCF8091C60008950B
:1002C000982F8091C00085FFFCCFE0ECF0E0968392
:1002D00080E090E00895E8E6F0E0E80FF11DE49199
:1002E0008E2F08951F920F920FB60F9211242F9305
:1002F0003F934F935F938F939F93EF93FF9315B823
:1003000030911701432F50E0FA01E85EFE4F8081E3
:100310008BB925B181E090E0032E02C0880F991FB0
:100320000A94E2F7282B25B93F5F30931701363046
:1003300011F410921701FF91EF919F918F915F91AE
:100340004F913F912F910F900FBE0F901F901895D6
:1003500014BC84E085BDEEE6F0E08081816080839E
:10036000089514BC84E085BDEEE6F0E080818160F4
:1003700080838AB18FEF8AB98FE384B90895089595
:100380001F93182F8F700E946B0180931C01812F87
:1003900082958F700E946B0180931D011F910895BB
:1003A0001F93182F8F700E946B0180931A01812F69
:1003B00082958F700E946B0180931B011F9108959D
:1003C0001F93182F8F700E946B0180931801812F4B
:1003D00082958F700E946B01809319011F9108957F
:1003E000E0E8F0E010828DE0818389E09DE3918771
:1003F0008087EEE6F0E08181826081830895E0E805
:10040000F0E010828DE0818389E09DE39187808711
:10041000EEE6F0E08181826081838BE380931F01AF
:100420000895809120018C3338F010922001809142
:100430001F018F5F80931F0180911F018C3338F063
:1004400010921F0180911E018F5F80931E01809189
:100450001E01883110F010921E0108951F920F9214
:100460000FB60F9211242F933F934F935F936F9387
:100470007F938F939F93AF93BF93EF93FF9380915D
:1004800020018F5F809320010E941102FF91EF9164
:10049000BF91AF919F918F917F916F915F914F919C
:1004A0003F912F910F900FBE0F901F901895809144
:1004B0002001089580911F01089580911E010895E3
:1004C0000E94B1010E94FF017894FFCFF894FFCF02
:1004D000F8000000020000000060010000000000C1
:00000001FF
