:100000000C9434000C9451000C9451000C94510049
:100010000C9451000C9451000C9451000C9451001C
:100020000C9451000C9451000C9451000C944C0110
:100030000C9451000C9451000C9451000C945100FC
:100040000C9451000C9451000C9451000C945100EC
:100050000C9451000C9451000C9451000C945100DC
:100060000C94B9000C94510011241FBECFEFD8E0BE
:10007000DEBFCDBF11E0A0E0B1E0EEE5F3E002C0ED
:1000800005900D92A031B107D9F721E0A0E1B1E0D0
:1000900001C01D92AB31B207E1F70E94A9010C9497
:1000A000AD010C9400008CE284B981E78CBD089509
:1000B0008EBD0DB407FEFDCF8EB508950C9458008B
:1000C00084E88093B8008FEF8093BB0084E0809336
:1000D000BC0008958091BC00817008958091BC009F
:1000E00080FDFCCF8091000108952091BC0020FD8F
:1000F000FCCF60931201FC0120812093130120FFAB
:1001000009C01092110188EF8093000185EA809365
:10011000BC000895FC013196A4E1B1E081E08617AE
:1001200080F791919D938F5FFACF8091BC0080FD05
:10013000FCCF1092110188EF8093000185EA809333
:10014000BC0008952091BC0020FDFCCF209111013E
:1001500020FD04C08091110181700895A3E1B1E0F8
:10016000282FFC018E2F821B8617A0F78D9181937B
:10017000F9CF1F920F920FB60F9211242F933F9336
:100180008F939F93EF93FF938091B900883201F191
:1001900040F48031D9F08831D9F0883009F04AC074
:1001A00015C0803491F128F4883309F043C085EA02
:1001B00046C08035F1F08835E9F58091BB00E091CB
:1001C0001001F0E0ED5EFE4F80832DC01092100113
:1001D000E091100180911201E81728F581E08E0F5F
:1001E00080931001F0E0ED5EFE4F80818093BB00B4
:1001F00018C0E091100181E08E0F80931001809172
:10020000BB00F0E0ED5EFE4F80832091100130E0F6
:100210008091120190E001972817390714F485ECBA
:100220000EC085E80CC0809111018160809311019E
:1002300084E905C08091B9008093000184E0809337
:10024000BC00FF91EF919F918F913F912F910F9063
:100250000FBE0F901F90189581E091E00895E0EC9B
:10026000F0E095838483108288E9818386E082832D
:1002700008959091C00095FFFCCF8093C60008952B
:100280000E94390180E090E008958091C00087FFCE
:10029000FCCF8091C60008951F920F920FB60F9267
:1002A00011248F939F9380911701853059F4809189
:1002B0001A018F5F80931A011092170195B181E0A6
:1002C000892785B9809117018F5F809317019F91CE
:1002D0008F910F900FBE0F901F901895E0E8F0E0FF
:1002E00010828EE1818385E39CE091878087EEE632
:1002F000F0E081818260818308950E946E0181E037
:1003000084B985B9089580911A018C3338F0109220
:100310001A01809119018F5F809319018091190151
:100320008C3338F010921901809118018F5F8093FF
:10033000180180911801883110F010921801089569
:1003400080911A01089580911901089580911901F1
:0E03500008950E947D017894FFCFF894FFCFAE
:10035E00F800000002000000004001000000000054
:00000001FF
