:100000000C943C000C94AD010C9459000C945900D4
:100010000C9459000C9459000C9459000C945900FC
:100020000C9459000C9459000C9459000C945900EC
:100030000C9459000C9459000C9459000C945900DC
:100040000C9459000C9459000C9459000C945900CC
:100050000C9459000C9459000C9459000C945900BC
:100060000C9459000C9459004079243019120278EC
:10007000001808034621060E11241FBECFEFD8E05A
:10008000DEBFCDBF11E0A0E0B1E0ECEAF3E002C0DA
:1000900005900D92AC31B107D9F711E0ACE1B1E0B8
:1000A00001C01D92AD31B107E1F70E94BE010C9471
:1000B000D4010C9400008CE284B981E78CBD0895D2
:1000C0008EBD0DB407FEFDCF8EB508958EBD0DB467
:1000D00007FEFDCF8EB5089580E091E00895E0EC35
:1000E000F0E095838483108288E9818386E08283AF
:1000F0000895982F8091C00085FFFCCFE0ECF0E0E0
:10010000968308958091C00087FFFCCF8091C60040
:100110000895982F8091C00085FFFCCFE0ECF0E0BF
:10012000968380E090E008958EE091E00895482F56
:10013000662311F4289801C0289A8BB1942F907FE0
:100140008F70982B9BB925E0822F8A95F1F7299A19
:10015000822F8A95F1F7299830EF832F8A95F1F74E
:100160008BB1942F9295907F8F70982B9BB9822F93
:100170008A95F1F7299A2A95F1F729983A95F1F796
:10018000662331F4443020F480E49FE10197F1F7D5
:100190000895209A219A8AB1806F8AB9289829985F
:1001A00088EC90E020E931E0F9013197F1F701970F
:1001B000D9F78BB18F7080638BB995E0892F8A95C1
:1001C000F1F7299A892F8A95F1F7299820EF822F44
:1001D0008A95F1F7E0E2FEE43197F1F7892F8A95ED
:1001E000F1F7299A892F8A95F1F72998822F8A9514
:1001F000F1F7E0E2F3E03197F1F7892F8A95F1F713
:10020000299A892F8A95F1F72998822F8A95F1F7F3
:100210008BB18F7080628BB9892F8A95F1F7299AFB
:100220009A95F1F729982A95F1F788E260E00E9403
:10023000970088E060E00E94970081E060E00E9403
:1002400097008CE060E00E94970080E860E00E94E8
:1002500097000895CF93DF93EC0104C061E00E9402
:100260009700219688818823C9F7DF91CF9108955F
:10027000CF93DF93EC0104C061E00E9497002196C8
:10028000FE0184918823C1F7DF91CF91089561E049
:100290000E94970081E090E00895E8E6F0E0E80F22
:1002A000F11DE4918E2F089584B1876084B935B132
:1002B000289885B1299825B12A9895B1832B822B4E
:1002C000892B85B908950E944D0128E0482F50E000
:1002D000E3E2F0E035E32150CA01022E02C0959519
:1002E00087950A94E2F780FF03C085B1816002C060
:1002F00085B18E7F828385B1A3E2B0E085B1826053
:100300008283832F8A95F1F785B18D7F82832223A3
:1003100011F785B1846012968C93129785E38A95C4
:10032000F1F785B18B7F12968C9308951F93182F48
:100330008F700E946301812F82958F700E946301EC
:100340001F9108958AB18B6F8AB95A9A82E080937F
:10035000690081E08DBB789408951F920F920FB6CB
:100360000F9211248F9380911C018F5F80931C0149
:100370008F910F900FBE0F901F901895CF93DF9322
:100380000E94A2010E945401C0E9D1E080911C01A9
:1003900080911C010E94960184EF91E0FE0131974B
:0C03A000F1F70197D9F7F2CFF894FFCFE6
:1003AC0000000002000000008900000000000000B6
:0C03BC00000200000000470100000000EB
:00000001FF
